{
  "contractName": "Voting",
  "abi": [
    {
      "inputs": [
        {
          "internalType": "string[]",
          "name": "candidateNames",
          "type": "string[]"
        },
        {
          "internalType": "uint256",
          "name": "durationMinutes",
          "type": "uint256"
        }
      ],
      "stateMutability": "nonpayable",
      "type": "constructor"
    },
    {
      "inputs": [
        {
          "internalType": "uint256",
          "name": "",
          "type": "uint256"
        }
      ],
      "name": "candidates",
      "outputs": [
        {
          "internalType": "string",
          "name": "name",
          "type": "string"
        },
        {
          "internalType": "uint256",
          "name": "voteCount",
          "type": "uint256"
        }
      ],
      "stateMutability": "view",
      "type": "function",
      "constant": true
    },
    {
      "inputs": [
        {
          "internalType": "address",
          "name": "",
          "type": "address"
        }
      ],
      "name": "voters",
      "outputs": [
        {
          "internalType": "bool",
          "name": "",
          "type": "bool"
        }
      ],
      "stateMutability": "view",
      "type": "function",
      "constant": true
    },
    {
      "inputs": [],
      "name": "votingEndTime",
      "outputs": [
        {
          "internalType": "uint256",
          "name": "",
          "type": "uint256"
        }
      ],
      "stateMutability": "view",
      "type": "function",
      "constant": true
    },
    {
      "inputs": [
        {
          "internalType": "uint256",
          "name": "candidateIndex",
          "type": "uint256"
        }
      ],
      "name": "vote",
      "outputs": [],
      "stateMutability": "nonpayable",
      "type": "function"
    },
    {
      "inputs": [],
      "name": "getCandidates",
      "outputs": [
        {
          "components": [
            {
              "internalType": "string",
              "name": "name",
              "type": "string"
            },
            {
              "internalType": "uint256",
              "name": "voteCount",
              "type": "uint256"
            }
          ],
          "internalType": "struct Voting.Candidate[]",
          "name": "",
          "type": "tuple[]"
        }
      ],
      "stateMutability": "view",
      "type": "function",
      "constant": true
    },
    {
      "inputs": [],
      "name": "getWinner",
      "outputs": [
        {
          "internalType": "string",
          "name": "winnerName",
          "type": "string"
        }
      ],
      "stateMutability": "view",
      "type": "function",
      "constant": true
    }
  ],
  "bytecode": "0x60806040523480156200001157600080fd5b50604051620012e5380380620012e58339818101604052810190620000379190620002fd565b60005b82518110156200010757600160405180604001604052808584815181106200008b577f4e487b7100000000000000000000000000000000000000000000000000000000600052603260045260246000fd5b60200260200101518152602001600081525090806001815401808255809150506001900390600052602060002090600202016000909190919091506000820151816000019080519060200190620000e492919062000132565b506020820151816001015550508080620000fe9062000521565b9150506200003a565b50603c816200011791906200044a565b42620001249190620003ed565b600281905550505062000616565b8280546200014090620004eb565b90600052602060002090601f016020900481019282620001645760008555620001b0565b82601f106200017f57805160ff1916838001178555620001b0565b82800160010185558215620001b0579182015b82811115620001af57825182559160200191906001019062000192565b5b509050620001bf9190620001c3565b5090565b5b80821115620001de576000816000905550600101620001c4565b5090565b6000620001f9620001f3846200038b565b62000357565b9050808382526020820190508260005b858110156200023d5781518501620002228882620002b9565b84526020840193506020830192505060018101905062000209565b5050509392505050565b60006200025e6200025884620003ba565b62000357565b9050828152602081018484840111156200027757600080fd5b62000284848285620004b5565b509392505050565b600082601f8301126200029e57600080fd5b8151620002b0848260208601620001e2565b91505092915050565b600082601f830112620002cb57600080fd5b8151620002dd84826020860162000247565b91505092915050565b600081519050620002f781620005fc565b92915050565b600080604083850312156200031157600080fd5b600083015167ffffffffffffffff8111156200032c57600080fd5b6200033a858286016200028c565b92505060206200034d85828601620002e6565b9150509250929050565b6000604051905081810181811067ffffffffffffffff82111715620003815762000380620005cd565b5b8060405250919050565b600067ffffffffffffffff821115620003a957620003a8620005cd565b5b602082029050602081019050919050565b600067ffffffffffffffff821115620003d857620003d7620005cd565b5b601f19601f8301169050602081019050919050565b6000620003fa82620004ab565b91506200040783620004ab565b9250827fffffffffffffffffffffffffffffffffffffffffffffffffffffffffffffffff038211156200043f576200043e6200056f565b5b828201905092915050565b60006200045782620004ab565b91506200046483620004ab565b9250817fffffffffffffffffffffffffffffffffffffffffffffffffffffffffffffffff0483118215151615620004a0576200049f6200056f565b5b828202905092915050565b6000819050919050565b60005b83811015620004d5578082015181840152602081019050620004b8565b83811115620004e5576000848401525b50505050565b600060028204905060018216806200050457607f821691505b602082108114156200051b576200051a6200059e565b5b50919050565b60006200052e82620004ab565b91507fffffffffffffffffffffffffffffffffffffffffffffffffffffffffffffffff8214156200056457620005636200056f565b5b600182019050919050565b7f4e487b7100000000000000000000000000000000000000000000000000000000600052601160045260246000fd5b7f4e487b7100000000000000000000000000000000000000000000000000000000600052602260045260246000fd5b7f4e487b7100000000000000000000000000000000000000000000000000000000600052604160045260246000fd5b6200060781620004ab565b81146200061357600080fd5b50565b610cbf80620006266000396000f3fe608060405234801561001057600080fd5b50600436106100625760003560e01c80630121b93f1461006757806306a49fce146100835780631ea736e0146100a15780633477ee2e146100bf5780638e7ea5b2146100f0578063a3ec138d1461010e575b600080fd5b610081600480360381019061007c91906106e2565b61013e565b005b61008b6102ca565b6040516100989190610930565b60405180910390f35b6100a96103c5565b6040516100b69190610a1f565b60405180910390f35b6100d960048036038101906100d491906106e2565b6103cb565b6040516100e792919061098f565b60405180910390f35b6100f8610487565b604051610105919061096d565b60405180910390f35b610128600480360381019061012391906106b9565b61066f565b6040516101359190610952565b60405180910390f35b6002544210610182576040517f08c379a0000000000000000000000000000000000000000000000000000000008152600401610179906109df565b60405180910390fd5b6000803373ffffffffffffffffffffffffffffffffffffffff1673ffffffffffffffffffffffffffffffffffffffff16815260200190815260200160002060009054906101000a900460ff161561020e576040517f08c379a0000000000000000000000000000000000000000000000000000000008152600401610205906109bf565b60405180910390fd5b60016000803373ffffffffffffffffffffffffffffffffffffffff1673ffffffffffffffffffffffffffffffffffffffff16815260200190815260200160002060006101000a81548160ff02191690831515021790555060018082815481106102a0577f4e487b7100000000000000000000000000000000000000000000000000000000600052603260045260246000fd5b906000526020600020906002020160010160008282546102c09190610aa0565b9250508190555050565b60606001805480602002602001604051908101604052809291908181526020016000905b828210156103bc578382906000526020600020906002020160405180604001604052908160008201805461032190610b71565b80601f016020809104026020016040519081016040528092919081815260200182805461034d90610b71565b801561039a5780601f1061036f5761010080835404028352916020019161039a565b820191906000526020600020905b81548152906001019060200180831161037d57829003601f168201915b50505050508152602001600182015481525050815260200190600101906102ee565b50505050905090565b60025481565b600181815481106103db57600080fd5b90600052602060002090600202016000915090508060000180546103fe90610b71565b80601f016020809104026020016040519081016040528092919081815260200182805461042a90610b71565b80156104775780601f1061044c57610100808354040283529160200191610477565b820191906000526020600020905b81548152906001019060200180831161045a57829003601f168201915b5050505050908060010154905082565b60606002544210156104ce576040517f08c379a00000000000000000000000000000000000000000000000000000000081526004016104c5906109ff565b60405180910390fd5b6000805b60018054905081101561066a57816001828154811061051a577f4e487b7100000000000000000000000000000000000000000000000000000000600052603260045260246000fd5b9060005260206000209060020201600101541115610657576001818154811061056c577f4e487b7100000000000000000000000000000000000000000000000000000000600052603260045260246000fd5b9060005260206000209060020201600101549150600181815481106105ba577f4e487b7100000000000000000000000000000000000000000000000000000000600052603260045260246000fd5b906000526020600020906002020160000180546105d690610b71565b80601f016020809104026020016040519081016040528092919081815260200182805461060290610b71565b801561064f5780601f106106245761010080835404028352916020019161064f565b820191906000526020600020905b81548152906001019060200180831161063257829003601f168201915b505050505092505b808061066290610ba3565b9150506104d2565b505090565b60006020528060005260406000206000915054906101000a900460ff1681565b60008135905061069e81610c5b565b92915050565b6000813590506106b381610c72565b92915050565b6000602082840312156106cb57600080fd5b60006106d98482850161068f565b91505092915050565b6000602082840312156106f457600080fd5b6000610702848285016106a4565b91505092915050565b600061071783836108d5565b905092915050565b600061072a82610a4a565b6107348185610a6d565b93508360208202850161074685610a3a565b8060005b858110156107825784840389528151610763858261070b565b945061076e83610a60565b925060208a0199505060018101905061074a565b50829750879550505050505092915050565b61079d81610b08565b82525050565b60006107ae82610a55565b6107b88185610a7e565b93506107c8818560208601610b3e565b6107d181610c4a565b840191505092915050565b60006107e782610a55565b6107f18185610a8f565b9350610801818560208601610b3e565b61080a81610c4a565b840191505092915050565b6000610822601783610a8f565b91507f596f75206861766520616c726561647920766f7465642e0000000000000000006000830152602082019050919050565b6000610862601883610a8f565b91507f566f74696e6720706572696f642068617320656e6465642e00000000000000006000830152602082019050919050565b60006108a2601f83610a8f565b91507f566f74696e6720706572696f64206973207374696c6c206f6e676f696e672e006000830152602082019050919050565b600060408301600083015184820360008601526108f282826107a3565b91505060208301516109076020860182610912565b508091505092915050565b61091b81610b34565b82525050565b61092a81610b34565b82525050565b6000602082019050818103600083015261094a818461071f565b905092915050565b60006020820190506109676000830184610794565b92915050565b6000602082019050818103600083015261098781846107dc565b905092915050565b600060408201905081810360008301526109a981856107dc565b90506109b86020830184610921565b9392505050565b600060208201905081810360008301526109d881610815565b9050919050565b600060208201905081810360008301526109f881610855565b9050919050565b60006020820190508181036000830152610a1881610895565b9050919050565b6000602082019050610a346000830184610921565b92915050565b6000819050602082019050919050565b600081519050919050565b600081519050919050565b6000602082019050919050565b600082825260208201905092915050565b600082825260208201905092915050565b600082825260208201905092915050565b6000610aab82610b34565b9150610ab683610b34565b9250827fffffffffffffffffffffffffffffffffffffffffffffffffffffffffffffffff03821115610aeb57610aea610bec565b5b828201905092915050565b6000610b0182610b14565b9050919050565b60008115159050919050565b600073ffffffffffffffffffffffffffffffffffffffff82169050919050565b6000819050919050565b60005b83811015610b5c578082015181840152602081019050610b41565b83811115610b6b576000848401525b50505050565b60006002820490506001821680610b8957607f821691505b60208210811415610b9d57610b9c610c1b565b5b50919050565b6000610bae82610b34565b91507fffffffffffffffffffffffffffffffffffffffffffffffffffffffffffffffff821415610be157610be0610bec565b5b600182019050919050565b7f4e487b7100000000000000000000000000000000000000000000000000000000600052601160045260246000fd5b7f4e487b7100000000000000000000000000000000000000000000000000000000600052602260045260246000fd5b6000601f19601f8301169050919050565b610c6481610af6565b8114610c6f57600080fd5b50565b610c7b81610b34565b8114610c8657600080fd5b5056fea26469706673582212203f67c1be13398e2d88f1974bc71076fc0a18791a20a42c7f4c6593c5aaf935f764736f6c63430008000033",
  "immutableReferences": {},
  "source": "// SPDX-License-Identifier: MIT\r\npragma solidity ^0.8.0;\r\n\r\ncontract Voting {\r\n    struct Candidate {\r\n        string name;\r\n        uint voteCount;\r\n    }\r\n\r\n    mapping(address => bool) public voters;\r\n    Candidate[] public candidates;\r\n    uint public votingEndTime;\r\n\r\n    constructor(string[] memory candidateNames, uint durationMinutes) {\r\n        for (uint i = 0; i < candidateNames.length; i++) {\r\n            candidates.push(Candidate({\r\n                name: candidateNames[i],\r\n                voteCount: 0\r\n            }));\r\n        }\r\n        votingEndTime = block.timestamp + (durationMinutes * 1 minutes);\r\n    }\r\n\r\n    function vote(uint candidateIndex) public {\r\n        require(block.timestamp < votingEndTime, \"Voting period has ended.\");\r\n        require(!voters[msg.sender], \"You have already voted.\");\r\n\r\n        voters[msg.sender] = true;\r\n        candidates[candidateIndex].voteCount += 1;\r\n    }\r\n\r\n    function getCandidates() public view returns (Candidate[] memory) {\r\n        return candidates;\r\n    }\r\n\r\n    function getWinner() public view returns (string memory winnerName) {\r\n        require(block.timestamp >= votingEndTime, \"Voting period is still ongoing.\");\r\n\r\n        uint winningVoteCount = 0;\r\n        for (uint i = 0; i < candidates.length; i++) {\r\n            if (candidates[i].voteCount > winningVoteCount) {\r\n                winningVoteCount = candidates[i].voteCount;\r\n                winnerName = candidates[i].name;\r\n            }\r\n        }\r\n    }\r\n}\r\n",
  "sourcePath": "C:\\Users\\MSI-1\\OneDrive\\Desktop\\votingsystem\\contracts\\Voting.sol",
  "compiler": {
    "name": "solc",
    "version": "0.8.0+commit.c7dfd78e.Emscripten.clang"
  },
  "schemaVersion": "3.4.16",
  "updatedAt": "2024-09-01T07:48:46.048Z",
  "networkType": "ethereum",
  "devdoc": {
    "kind": "dev",
    "methods": {},
    "version": 1
  },
  "userdoc": {
    "kind": "user",
    "methods": {},
    "version": 1
  }
}